:020000040800F2
:1000000078CB012055020008FF110008E910000814
:10001000FD110008AD080008CB3100080000000009
:100020000000000000000000000000009D0100082A
:10003000A50F000800000000F1010008E516000807
:100040006F0200086F0200086F0200086F020008CC
:100050006F0200086F0200086F0200086F020008BC
:100060006F0200086F0200086F0200086F020008AC
:100070006F0200086F0200086F0200086F0200089C
:100080006F0200086F0200086F0200086F0200088C
:100090006F0200086F0200086F0200086F0200087C
:1000A0006F0200086F0200086F0200086F0200086C
:1000B0006F0200086F0200086F0200086F0200085C
:1000C0006F0200086F0200086F0200086F0200084C
:1000D0006F0200088D1A0008CD1A00086F02000890
:1000E0006F0200086F0200086F0200086F0200082C
:1000F0006F0200086F0200086F0200086F0200081C
:100100006F0200089D1300086F0200086F020008CC
:100110006F0200086F0200086F0200086F020008FB
:100120006F0200086F0200086F0200086F020008EB
:100130006F0200086F0200086F0200086F020008DB
:100140006F0200086F0200086F0200087D120008AD
:100150006F0200086F0200086F0200086F020008BB
:100160006F0200086F0200086F0200086F020008AB
:100170006F0200086F0200086F0200086F0200089B
:100180006F0200086F020008DFF80CD000F0AEFA32
:1001900000480047113D000878CB01202A4B196820
:1001A0000868B0E8F04F80F30988BFF36F8F4FF015
:1001B000000080F3118870470000000006480068C6
:1001C000006880F3088862B661B6BFF34F8FBFF353
:1001D0006F8F00DF00BF00BF08ED00E0DFF80C000C
:1001E000016841F470010160704700BF88ED00E0D4
:1001F000EFF30980BFF36F8F134B1A681EF0100FD7
:1002000008BF20ED108A20E9F04F106008B44FF0CD
:10021000500080F31188BFF34F8FBFF36F8F04F04E
:100220002BFF4FF0000080F3118808BC19680868A4
:10023000B0E8F04F1EF0100F08BFB0EC108A80F34A
:100240000988BFF36F8F70472C000020EFF3058003
:10025000704700000648804706480047FEE7FEE773
:10026000FEE7FEE7FEE7FEE7FEE7FEE7FEE7FEE766
:10027000F91600088901000840EA01039B0703D032
:1002800009E008C9121F08C0042AFAD203E011F8D5
:10029000013B00F8013B521EF9D27047D2B201E097
:1002A00000F8012B491EFBD270470022F6E710B57B
:1002B00013460A4604461946FFF7F0FF204610BDD4
:1002C000421C10F8011B0029FBD1801A704702461E
:1002D000C9B200E0401C0378002BFBD102E0037898
:1002E0008B4203D0401E9042F9D20020704730B5B7
:1002F0000B46014600202022012409E021FA02F5E4
:100300009D4205D303FA02F5491B04FA02F528447D
:10031000151EA2F10102F1DC30BD2DE9F05F0546AA
:10032000002092469B4688460646814640241BE0B4
:10033000284641464746224600F0F9F953465A46B8
:10034000C01A914110D311461846224600F0E0F938
:100350002D1A67EB01084F4622460120002100F0CC
:10036000D7F917EB00094E41201EA4F10104DFDC90
:10037000484631462A464346BDE8F09F2DE9FE4FE8
:10038000804681EA0300C00F0C46009021F0004136
:1003900023F00045B8EB0200A94105D240462146B2
:1003A00090461C460B46024623F00040104347D0BF
:1003B000270DC7F30A00C3F30A510290401A0190B7
:1003C00040286BDAC3F3130040F4801B0098924678
:1003D00020B10023D2EB030A63EB0B0B01985946C3
:1003E000C0F14002504600F093F906460D465046D3
:1003F0005946019A00F0ABF910EB08006141002466
:1004000087EA115284EAE7731A4340D0009A62B334
:10041000019A012A4FEA075215DC001B61EB020129
:100420004FF0004202EA0752CDE90042001C41F5BC
:10043000801132462B4600F0ABF903B0BDE8F08FD7
:1004400040462146F9E7001B61EB0201001C41F523
:10045000801300185B412018A2F5001747EB030139
:1004600040EAD570B6196D4111E06D084FEA3606C5
:1004700045EAC0754FEA0752001B61EB0201001C00
:1004800041F5801149084FEA3000001951413246C8
:100490002B4603B0BDE8F04F00F06BB90098012285
:1004A00040000023D0EB020263EBE073009821468A
:1004B0004FEAE074B8EB000061EB0401E9E783F078
:1004C00000435BE781F0004158E72DE9FE4F81EAE8
:1004D000030404F0004421F0004100944FF0000BAD
:1004E00023F0004350EA01045ED052EA03045BD0DB
:1004F000C3F30A54C1F30A552C44A4F2F334019413
:10050000A0FB0254C1F3130141F48011C3F31303A0
:1005100043F4801301FB024400FB034E840A970A54
:1005200044EA815447EA8357A4FB076802958D0A81
:1005300005FB07854FEA932C04FB0C542705029D0D
:100540004FEA065847EA1637B5EB08056EEB070C7D
:10055000870E920E47EA811742EA8312A7FB020137
:10056000B6EB0B0164EB00042B0D43EA0C335E1871
:1005700044EB1C50DA465146E7FB0201C5F3130475
:100580004FEA0B3343EA14534FEA0432019C43EA27
:100590000603A4F10C040294009CCDE900B400F021
:1005A000F7F803B0BDE8F08F00200146F9E72DE928
:1005B000F04D81EA030404F0004B21F0004514469D
:1005C0004FF0000A23F0004150EA050220D054EA1F
:1005D00001021DD0C5F30A570246C5F31303C1F348
:1005E0001300C1F30A5640F4801543F48013A7EBBF
:1005F0000608101BD64608F2FD3873EB050002D33F
:1006000008F1010801E092185B41B8F1000F03DA2C
:1006100000200146BDE8F08D00204FF48011064611
:1006200084460EE0171B73EB050705D3121B63EB23
:10063000050306434CEA010C49084FEA30009218C2
:100640005B4150EA0107EDD152EA030012D082EA81
:10065000040083EA0501084305D0101BAB4106D214
:100660000122002306E000224FF0004302E06FF079
:10067000010253101AEB06004CEB085110EB0A0074
:1006800041EB0B01BDE8F04D00F073B8C1F30A5225
:10069000C1F3130140F2FF3341F480119A4202DAB0
:1006A00000200146704740F233439A42A2F233429F
:1006B00002DC524200F03BB800F02AB830B5041E0C
:1006C00071F1000404DB4FF00044404264EB01018F
:1006D000141E73F1000405DB1C464FF00043524228
:1006E00063EB0403994208BF904230BD064C074DAE
:1006F00006E0E06840F0010394E8070098471034F2
:10070000AC42F6D3FFF744FD705B0008905B000835
:10071000202A04DB203A00FA02F1002070479140C1
:10072000C2F1200320FA03F3194390407047202AB6
:1007300004DB203A21FA02F00021704721FA02F38B
:10074000D040C2F120029140084319467047202A48
:1007500006DBCB17203A41FA02F043EAE07306E0E9
:1007600041FA02F3D040C2F12002914008431946F9
:10077000704710B5141E73F1000408DA401C41F1F3
:10078000000192185B411A4301D120F0010010BD15
:100790002DE9F04D92469B4611B1B1FA81F202E08B
:1007A000B0FA80F220329046FFF7B2FF04460F46BF
:1007B00040EA0A0041EA0B0153465A46084313D067
:1007C000114653EA010019D0C8F140025046FFF724
:1007D000AEFF05460E46504659464246FFF798FF83
:1007E000084305D0012004E020463946BDE8F08DDD
:1007F0000020054346EAE0762C4337430A98630518
:10080000E40AA0EB08000022FD0A44EA47540A303B
:1008100002D500200146E9E7010510196941DDE92B
:10082000084500196941BDE8F04DA2E770B58C1884
:1008300010F8015B15F0070301D110F8013B2A11F4
:1008400006D110F8012B03E010F8016B01F8016BE1
:100850005B1EF9D12B0705D40023521E0DD401F8DD
:10086000013BFAE710F8013BCB1A921C03E013F8A6
:10087000015B01F8015B521EF9D5A142D8D30020DB
:1008800070BD000004F028FC014602A002F058FDF3
:1008900004F01AF87732357136345F726561645F3F
:1008A0004944203D2025780D0A000000FEE70000A5
:1008B000104A116811F0450FFBD00F4A4B0703D5C2
:1008C0000420106003207047C90702D00120106087
:1008D0007047084924390968814201D010207047C7
:1008E00040F2FF50106003482038006800F0080014
:1008F00070470000342C0140382C014010B50B46E5
:1009000003F07F0202EB82011C0600EBC10102D55D
:1009100001F58E7101E001F55D710A70DA094A7026
:1009200002F006FA002010BD10B50A46110602F0CA
:100930007F0306D503EB830100EBC10101F58E7146
:1009400005E002EB820100EBC10101F55D710024BD
:100950008C700B70D2094A7002F0CCF9002010BDE7
:1009600070B50D4605F07F0404EB84012E0600EB04
:10097000C10102D501F58E7101E001F55D710C70C8
:10098000ED094D708A60CB7005B1CC80022B01D18E
:1009900000220A7102F080F9002070BD10B501F04C
:1009A0007F0404EB840100EBC10101F55D71CA60B5
:1009B0004B6100238B614B700C70C378012B00D10D
:1009C0000A610A781AB102F0EEF9002010BD02F0B7
:1009D000C2F8FAE7002261F30A12006901681143C4
:1009E0000160704710B50A46110602F07F0306D574
:1009F00003EB830100EBC10101F58E7105E002EB11
:100A0000820100EBC10101F55D7101248C700B7056
:100A1000D2094A7002F0A7F9002010BD70B501F0AC
:100A20007F0404EB840100EBC10101F58E71012507
:100A30004D700C70CA600A6100228A614B61002C03
:100A400003D002F0B0F9002070BD02F084F8FAE79C
:100A500038B50446204602F059F8E068C16821F430
:100A600070550095C560204602F0CCFA0146002082
:100A7000032911D00120A0704020A08025F47050DF
:100A800000F5A0500090E1680098C8604FF4005055
:100A9000E1684861012038BDA0704FF40070A0806B
:100AA00025F4705000F510500090ECE7F8B50546BD
:100AB000002400200090284602F0D3FA064652E0B7
:100AC000F0074ED0E1B2284600F012FA0090C007BD
:100AD0001CD0012101FA04F22869436B934343635C
:100AE000009105EB8400806981602148E1B20068D3
:100AF000426828469047E878012807D134B995F82C
:100B00001101042802D1284602F0AAF80098000733
:100B100005D50820009005EB84018969886000985C
:100B2000C00605D51020009005EB84018969886016
:100B30000098400605D54020009005EB84018969A6
:100B400088600098800705D50220009005EB84019D
:100B5000896988600098000603D52146284600F080
:100B6000D5F9641C7608002EAAD10120F8BD00003A
:100B7000E00000202DE9FC41054600240020019002
:100B8000284602F074FA0646274F47E0F00743D0A4
:100B9000E1B2284602F071FA0190C00726D0012187
:100BA000019105EB8400426D9160E97801290DD136
:100BB000406D0069009004EB840105EBC101C0F3B6
:100BC0001200D1F87C23101AC1F88C033868E1B206
:100BD000026828469047E878012807D134B995F88B
:100BE0001101052802D1284602F03AF80198800741
:100BF00005D50220019005EB8401496D88600198BC
:100C0000000709D538688168284688470820019080
:100C100005EB8401496D8860641C7608002EB5D10F
:100C20000120BDE8FC810000E000002038B504464A
:100C3000A07A002808D0D4F80C01016821F0020144
:100C400021F00101009101602069416821F001015A
:100C50004160054800688169204688474FF00040A0
:100C6000E1684861012038BDE00000207CB5054600
:100C700010200190E868816921F010018161E86825
:100C8000006A009000F00F0101EB810105EBC10447
:100C900004F55D74C0F34341072923D2DFE801F076
:100CA000222204222222160047F6F071084219D0AF
:100CB000C0F30A1632462846E16802F0E6F9E06819
:100CC0003044E060A0693044A0610BE0082205F2E6
:100CD000CC51284602F0D9F90099A069C1F30A1154
:100CE0000844A061E868816941F010018161012038
:100CF0007CBD000010B50446044920460968C96857
:100D000088470821E0684161012010BDE000002013
:100D10001FB504460020009094F812010090174877
:100D200000684169204688472069806801904FF437
:100D300000610391E2685161A17AE1B1C0071AD064
:100D400094F81501012816D19DF80000032812D14E
:100D5000D4F80C01016841F0010101600320029008
:100D6000D4F80C01016841F00301016004480168F6
:100D700041F00601016004B0012010BDE000002038
:100D800010ED00E070B586B0044600250595049589
:100D9000039502950095012601962069416821F08E
:100DA000010141600021204602F00AF90020FF22E3
:100DB00006E004EB80018B699A60496D8A60401CF3
:100DC00061788142F5D821694FF0FF308861ADF834
:100DD0001460ADF8166021690598C86145F00800F7
:100DE00040F0010040F002002169486145F0010037
:100DF00040F0080040F002002169086120690168A4
:100E000021F4FE610160204601F02AFF4FF480507A
:100E1000E16848610348006801692046884706B0D8
:100E2000012070BDE000002070B50446204602F0AD
:100E30003DF9012584F81251002084F814010022A4
:100E400040230DE002EB820104EBC10101F58E713C
:100E50004D700A70CA80C8708B60C8604861521CAF
:100E600061789142EED800220DE002EB820104EBA2
:100E7000C10101F55D7148700A70CA80C8708B604D
:100E8000C8604861521C61789142EED8204601F05A
:100E900035FE204601F00EFD0021204602F066F9E5
:100EA000204601F059FD2046BDE8704002F062B8CE
:100EB00010B50446054920460968C96988474FF4BA
:100EC0008011E0684161012010BD0000E0000020B9
:100ED00010B50446054920460968096A88474FF459
:100EE0000011E0684161012010BD0000E000002019
:100EF00002691369526BCA4002F0010243EAC2124E
:100F000000EB810080698068104070472DE9F8434C
:100F100006460F460020009007EB870006EBC00452
:100F200004F58E74D4E90501401AA168814200D20B
:100F30000846C01C4FEA900906EB8708D8F818004D
:100F40008069009021E0D51AA268AA4200D2154615
:100F5000E81C4FEA9009ABB2FAB23046E16802F001
:100F600020F9E0682844E060A0692844A061D8F82E
:100F70001810896900916169814206D120780121A8
:100F800081403069426B8A434263009880B2484591
:100F900005D9D4E90523934201D2002AD3D10120F7
:100FA000BDE8F88370472DE9F041002201274FF09A
:100FB000030C07FA02F50B682B40AB422CD10668F4
:100FC00053000CFA03F4A64306600E79D0F80080B3
:100FD0009E4046EA080606600E79012E01D0022ED8
:100FE00012D18668A64386604E79D0F808809E406C
:100FF00046EA080686604668AE43466045688E79D4
:101000009640B6B235434560C568A543C560CC7906
:101010009C40C3681C43C460521C102AC9D3BDE85D
:10102000F08110B54B07DB0E9A40C90800EB810038
:10103000016A0F249C40A1430162016A11430162CD
:1010400010BD000010B50B480168001D0468001DAC
:101050000068084400280BD00822074900F045F832
:10106000054920460422BDE81040103100F03DB88B
:1010700010BD0000107AFF1FC4010020F0B4184D0D
:10108000297801290AD0E9680026B1F5006F00D15E
:10109000EE60D5E90221914202D12E70F0BC70477A
:1010A00003D9C1F500622A6102E0A2EB01022A61C4
:1010B0002A69402A06D98CB240234031E960403A7F
:1010C0002A6104E08CB293B21144E9602E610121DF
:1010D000297004490A19F0BC8121FFF79FBC000068
:1010E000F8000020E8200120FEE7F0B500230A25E3
:1010F00030263727002412E0B5EB107F04D906EB29
:10110000107C01F813C003E007EB107C01F813C05A
:10111000000101EB430C8CF801405B1CDBB29342F5
:10112000EAD3F0BD3348016841F001010160324863
:10113000016821F440710160016841F4807101602F
:10114000416821F010014160816821F440718160A3
:10115000816841F400718160416941F01001416191
:10116000016821F440610160016841F4806101601F
:10117000416821F020014160816821F44061816073
:10118000816841F400618160416941F02001416161
:10119000016821F440510160016841F4805101600F
:1011A000416821F040014160816821F44051816033
:1011B000816841F400518160416941F04001416121
:1011C000016821F440410160016841F480410160FF
:1011D000416821F080014160816821F440418160D3
:1011E000816841F400418160416941F080014161C1
:1011F000704700003038024000000240FEE77047B0
:1012000030B50F23C27801250178002A1FD0154A76
:10121000126802F4E062C2F5E062C2F30722C2F192
:101220000404D3404278A24084781C401443220135
:1012300001F1E02181F80024007800F01F018D40C9
:101240004009800000F1E020C0F8005130BD01F0FD
:101250001F0085404809800000F1E020C0F880515F
:1012600030BD00000CED00E002490843024908606F
:10127000704700000000FA050CED00E0014800F0A6
:101280000FBF000054EA0020054A002903D011686E
:10129000014311607047116881431160704700007D
:1012A00030380240054A002903D01168014311601B
:1012B0007047116881431160704700003438024064
:1012C000054A002903D01168014311607047116875
:1012D000814311607047000040380240054A0029F0
:1012E00003D0116801431160704711688143116098
:1012F000704700004438024070B5244B196801F073
:101300000C01234C00291ED0224E04291DD008298F
:101310001DD00460196801F0F00109091E4A545CEF
:101320000168E14041601C6804F4E054A40A145DC3
:1013300021FA04F484601B6803F460435B0BD25C05
:10134000D140C16070BD0460E4E70660E2E70F4A87
:10135000121F1168C1F38055116801F03F0135B1CA
:10136000B6FBF1F11468C4F38814614305E0B4FBE3
:10137000F1F11468C4F3881461431268C2F30142A6
:10138000521C5200B1FBF2F10160C3E70838024081
:101390000024F40040787D01A000002000F012B885
:1013A000074B1A601B1D1A686FF30A0200F03F001A
:1013B000104340EA811040F48060186070470000DC
:1013C000082C0140F0B53448016800F10404334FA3
:1013D000C90504F104054CF23A3619D5B87801284C
:1013E0000CD00020F870206840F4807020602868DD
:1013F000B043286001203871F878F0BD0022012147
:101400000C20FFF7CDFF0C20FFF752FAF870EAE747
:101410000168890709D5206840F00200206028682B
:10142000B04328600220F870F0BD0168090709D5B3
:10143000206840F0080020602868B043286004203D
:10144000F870F0BD0168890609D5206840F02000D9
:1014500020602868B04328600620F870F0BD01685D
:10146000C90609D5206840F0100020602868B04304
:1014700028600520F870F0BD0068800509D5206857
:1014800040F4007020602868B04328600720F8709E
:10149000F0BD0020F0BD0000342C0140040000200D
:1014A00070B505460A4C0221204600F013F80028CA
:1014B000F9D02946204600F016F80121204600F018
:1014C00009F80028F9D0204600F00BF8C0B270BD32
:1014D000003001400246002012890A4200D001205B
:1014E0007047808970478181704700000CB50022E9
:1014F000019200922749086840F4803008604FF458
:10150000A043086800F4003000900198401C01904E
:10151000009810B901989842F3D10868800302D569
:101520000120009000E000920098012831D1194874
:101530004030026842F0805202601748026842F46C
:10154000404202601348083002680260026842F4B8
:1015500000420260026842F4A0520260021F0F4B78
:1015600013600A6842F080720A600A689201FCD532
:101570000B4A40F205711160016821F0030101601E
:10158000016841F0020101600168C1F38101022993
:10159000FAD10CBD003802400070004019544007D9
:1015A000003C02404548016841F0020101604448A6
:1015B000016821F040510160016841F080510160F3
:1015C000011D0A6822F00E020A60091D0A6822F055
:1015D00040520A600A6842F000520A6038491431E9
:1015E0000A6842F480420A60016821F440610160A7
:1015F000016841F400610160314920310A6822F438
:1016000070020A600A6842F4A0020A60026822F4CA
:1016100040720260026842F4007202600A6822F4BA
:1016200070220A600A6842F4A0220A60026822F06E
:10163000C0020260026842F080020260086820F482
:1016400070400860086840F4A04008601B481430EF
:10165000016841F4805101601A48018821F4004179
:101660000180018821F400610180018821F48061FA
:101670000180018841F400710180018841F480718A
:101680000180018821F080010180018821F038016A
:101690000180018841F018010180018841F00401B6
:1016A0000180018821F002010180018821F00101FF
:1016B0000180018841F040010180704730380240CC
:1016C00000040240003001404FF0E021042804D023
:1016D000086920F0040008617047086940F00400C0
:1016E0000861704710B504F057F8012803D0BDE831
:1016F000104003F087BD10BD10B51248016841F4D9
:10170000700101601048016841F0010101600E4A5A
:1017100000210832116002680C4B1A400260031D60
:101720000B4A1A60026822F48022026006480C30DC
:101730000160FFF7DBFE03494FF00060803908606D
:1017400010BD000088ED00E000380240FFFFF6FE0B
:1017500010300024F0B587B0054601210846FFF798
:1017600093FD01211020FFF7B9FD234F0722092126
:101770003846FFF756FC07220A213846FFF751FC8E
:101780004FF4C060059002208DF818008DF8190004
:1017900000248DF81A4001268DF81B6005A93846F3
:1017A000FFF701FC0195ADF80840ADF80A40ADF82F
:1017B0000C40ADF810400C20ADF80E000F4C01A904
:1017C000204600F0E1F90121204600F095F90122C0
:1017D00040F22551204600F0BBF925208DF800008D
:1017E00003208DF801008DF802008DF80360684633
:1017F000FFF706FD07B0F0BD0000024000100140F9
:1018000008B525208DF8000000208DF801008DF826
:10181000020001208DF803006846FFF7F1FC08BDC7
:101820002DE9F04188B0054601210846FFF72CFD5F
:1018300001214804FFF744FDDFF88C8007220221D4
:101840004046FFF7EEFB072203214046FFF7E9FB86
:101850000C27069702208DF81C008DF81D0000242F
:101860008DF81E4001268DF81F6006A94046FFF73F
:101870009AFB0295ADF80C40ADF80E40ADF8104063
:10188000ADF81440ADF81270104C02A9204600F0DB
:101890007BF90121204600F02FF9012240F2255169
:1018A000204600F055F926208DF8040003208DF81D
:1018B00005008DF806008DF8076001A8FFF7A0FC71
:1018C00008B0BDE8F0810000000002400044004084
:1018D00008B526208DF8000000208DF801008DF855
:1018E000020001208DF803006846FFF789FC08BD5F
:1018F000F0B587B0054601210220FFF7C5FC0121A4
:101900008804FFF7DDFC234F07220A213846FFF742
:1019100088FB07220B213846FFF783FB4FF440601A
:10192000059002208DF818008DF8190000248DF81C
:101930001A4001268DF81B6005A93846FFF733FBD6
:101940000195ADF80840ADF80A40ADF80C40ADF88F
:1019500010400C20ADF80E000F4C01A9204600F0FD
:1019600013F90121204600F0C7F8012240F2255169
:10197000204600F0EDF827208DF8000003208DF8B8
:1019800001008DF802008DF803606846FFF738FC0F
:1019900007B0F0BD000402400048004008B5272011
:1019A0008DF8000000208DF801008DF80200012064
:1019B0008DF803006846FFF723FC08BD2DE9F041D0
:1019C00088B0064601210846FFF75EFC0121C804E5
:1019D000FFF776FCDFF88C80082200214046FFF7F5
:1019E00020FB082201214046FFF71BFB032506953B
:1019F00002208DF81C008DF81D0000248DF81E407B
:101A000001278DF81F7006A94046FFF7CCFA029611
:101A1000ADF80C40ADF80E40ADF81040ADF81440F4
:101A20000C20ADF81200104C02A9204600F0ACF8D2
:101A30000121204600F060F8012240F225512046A5
:101A400000F086F834208DF804008DF805508DF8EC
:101A500006508DF8077001A8FFF7D2FB08B0BDE86B
:101A6000F081000000000240004C004008B5342026
:101A70008DF8000000208DF801008DF80200012093
:101A80008DF803006846FFF7BBFB08BD10B50C4995
:101A900008880D4A84060B4B107804D589881954A0
:101AA000401C107010BD0C88E406FBD50C8889889A
:101AB00000211954012083F8C800117010BD0000E6
:101AC00000100140200200200000002038B5094825
:101AD000044640F2255100F01BF8002808D02046AB
:101AE00000F0B0F8009001226946022002F026FEC4
:101AF00038BD000000440040002904D0818941F431
:101B0000005181817047818921F4005181817047A2
:101B100070B5002440F66A12C1F3421301F01F05AC
:101B2000012606FA05F2012B0CD0022B0DD0838A78
:101B30001340090A8E40008830400BB100B10124E7
:101B4000204670BD83891340F3E7038A1340F0E712
:101B500010B540F66A13C1F3421301F01F040121CE
:101B6000A140012B07D0022B07D014303AB10268F4
:101B70000A43026010BD0C30F8E71030F6E7026847
:101B80008A43026010BD00007FB504460D46208ADE
:101B900020F44051E88808432082A08941F20C617A
:101BA0008843A9882A8911436A8902431143A18184
:101BB000A08A20F44071A8890843A0826846FFF7F4
:101BC0009BFB1E48844202D01D48844201D10398E9
:101BD00000E00298A189090408D500EBC00101EBDF
:101BE000001029684900B0FBF1F007E000EBC001EC
:101BF00001EB001029688900B0FBF1F06422B0FB12
:101C0000F2F109010B096FF018056B4300EB83003B
:101C1000A3891D044FF0320307D503EBC000B0FBCE
:101C2000F2F000F00700084306E003EB0010B0FB01
:101C3000F2F000F00F00084320817FBD001001404A
:101C4000001401408088C0F30800704710B5D0F838
:101C5000E42552689047002010BD10B5044694F862
:101C60001201022806D0032804D02046BDE8104007
:101C700000F023B8488801280CD10020C4F81801CE
:101C8000D4F8E4058268204690472046BDE810401D
:101C900000F053B810BD10B5002413460A460021C9
:101CA000FEF77CFE204610BD10B5002413460A4600
:101CB0000021FEF7B3FE204610BD10B5044680217A
:101CC0002046FEF78FFE00212046FEF78BFE2046C1
:101CD000BDE8104000F0C4BF10B50024C0F8942344
:101CE000C0F89023032380F8113113460A460021DF
:101CF000FEF754FE204610BD70B5054600240520B1
:101D000085F8110100231A4619462846FEF746FEBB
:101D1000284600F0A5FF204670BD10B50024C0F88D
:101D20003C21C0F83821022380F8113113460A46BD
:101D30000021FEF773FE204610BD70B50546002455
:101D4000042085F8110100231A4619462846FEF79B
:101D500065FE284600F084FF204670BD70B505463C
:101D6000002908D0D5F8E40542698AB395F8120134
:101D7000032845D046E005F58E7495F8110100263C
:101D8000022833D1E169A06881420FD9081AE061C5
:101D9000E878012803D1D4E902100844E060A08B60
:101DA000E16882B22846FFF77FFF1FE0216AB1FB9E
:101DB000F0F200FB121262B981420AD3606A8142DA
:101DC00007D2002211462846FFF76EFF66620DE03B
:101DD00015E0D5F8E405C16829B195F8120103288A
:101DE00001D1284688472846FFF786FF95F8160157
:101DF000012807D1284600F0EFF985F8166101E0C7
:101E000028469047002070BD70B50546002908D0CF
:101E1000D5F8E40582690AB395F8120103282CD09D
:101E20002DE005F55D7495F81101032827D1E169CE
:101E3000A068814213D9081AE061E878012803D12B
:101E4000D4E902100844E060E169A068814200D250
:101E5000084682B22846E168FFF71DFF0FE0D5F87B
:101E6000E405016929B195F81201032801D128463A
:101E700088472846FFF761FF01E028469047002089
:101E800070BD002070470000CA88012A01D0FFF70A
:101E900014BF90F81221022A03D0032A05D0FFF7BD
:101EA0000CBF01220349FFF738BF012200F58871FA
:101EB000FFF733BFF000002038B504460D466888B0
:101EC000010A082978D2DFE801F077041521777735
:101ED0006C72D4F8EC15A0780A6869469047014600
:101EE000E888402803D094F81201012845D1082041
:101EF000009042E0D4F8E415A0788A6A69469047D9
:101F0000014602204870C4F8F01536E0C0B2062839
:101F100042D2DFE800F0030B131B232BD4F8EC159F
:101F2000A0784A6869469047014626E0D4F8EC1547
:101F3000A0788A686946904701461EE0D4F8EC15FF
:101F4000A078CA6869469047014616E0D4F8EC15B7
:101F5000A0780A696946904701460EE0D4F8EC156E
:101F6000A0784A6969469047014606E0D4F8EC1526
:101F7000A0788A69694690470146BDF800000028AC
:101F800009D0EA88002A06D0824200D9024600928F
:101F90002046FFF7C2FE38BD29462046FFF78DFEDA
:101FA00038BD29462046FFF788FE38BD04E02946A3
:101FB0002046FFF782FEF8E729462046FFF77DFE20
:101FC000F3E7002102E0491CC9B2401C0278002A54
:101FD000F9D108467047000090F81221022A03D078
:101FE000032A01D0FFF769BE06490122CA60D0F872
:101FF00018210AB10322CA60024902220C31FFF7FC
:102000008CBE0000E800002070B504460D46164660
:10201000002C16D02046FFF7D4FF022101EB400030
:1020200030802870032102206970002306E0411CE3
:10203000C9B22A54641C481CC0B26B542278002ACE
:10204000F5D170BD2DE9F0410446069F884616463D
:102050001D46204600F0F0FB2046FFF712FFC4F8B3
:10206000E455C4F8E875C4F8EC6541462046FEF72F
:10207000DBFED4F8E805006880472046BDE8F04163
:1020800000F0C8BB10B5D0F8E415096A88470020F5
:1020900010BD10B5D0F8E415496A8847002010BD7E
:1020A0007CB506460024304600F0CDFF002849D01C
:1020B000304600F0D1FF05460190E8B3280303D570
:1020C0003046FEF757FD0446680303D53046FEF759
:1020D000EDFC0443A80703D502200090F168486195
:1020E000002D03DA3046FEF7A1FD0443280503D591
:1020F0003046FEF70DFE0443280703D53046FEF7B1
:10210000F9FD0443E80603D53046FEF7AFFD04436E
:10211000E80403D53046FEF735FE0443A80403D592
:102120003046FEF795FC0443E80203D53046FEF73F
:10213000BFFE0443A80200E006E003D53046FEF7E8
:10214000C7FE044320467CBD00207CBD90F8CC2512
:102150000A7090F8CD254A7090F8CE2590F8CF35CA
:1021600002EB03224A8090F8D02590F8D13502EB9B
:1021700003228A8090F8D22590F8D33502EB03220F
:1021800092B2CA80C0F84021012180F81111704735
:1021900010B504460023402219462046FEF7E0FB16
:1021A0000023402280212046FEF7DAFB012084F83C
:1021B0001201D4F8E815A07849688847002010BDBE
:1021C00010B50446D4F8E80500698047032084F878
:1021D0001201002010BD0000024909680069416039
:1021E00000207047E400002010B5D0F8E415C9695C
:1021F000002900D08847002010BD70B504468888AB
:10220000002801D1C88820B12046BDE87040FFF702
:1022100054BD887800F07F0594F8120103280DD092
:1022200084F8145129462046FEF7D4FB2046FFF7D8
:1022300084FD45B1022084F8120170BD2046BDE83E
:102240007040FFF73ABD012084F8120170BD10B54F
:102250000446D4F8E405026820469047D4F8E8051F
:1022600080688047002010BD70B504460846284DA0
:1022700081782970012905D901462046BDE87040C2
:10228000FFF71BBD94F81221022A07D0032A18D0A9
:1022900001462046BDE87040FFF70FBD61B184F8EC
:1022A0001011032084F812012046FFF7D0FF2046CA
:1022B000BDE87040FFF741BD2046BDE87040FFF724
:1022C0003CBD91B194F8100188421BD001462046D4
:1022D000FFF7BCFC297884F810112046FFF7B7FF00
:1022E0002046BDE87040FFF728BD022084F81201A7
:1022F00084F810112046FFF7A9FC2046BDE8704085
:10230000FFF71BBD2046BDE87040FFF716BD00007B
:10231000E800002038B5044648880122012810D082
:1023200002283CD1888810F0FF0F38D12169496814
:102330000091000A062828D2DFE800F0270F1419C0
:102340001E23C4F81821D4F8E4058268204690477B
:102350002046BDE83840FFF7F0BC21F07000103097
:10236000009012E021F07000203000900DE021F08C
:1023700070003030009008E021F070004030009094
:1023800003E021F070005030009005480099016092
:1023900084F816212046BDE83840FFF7CEBC38BD92
:1023A000E40000201CB5044669462046FFF7CEFE37
:1023B0009DF8002012F01F010AD001290DD002293A
:1023C00010D002F080012046FEF70CFB00201CBD5F
:1023D0006946204600F00BF8F8E76946204600F011
:1023E000BBF8F3E76946204600F026F8EEE710B5A3
:1023F00000244A780A2A1BD2DFE802F011171A14C7
:102400001A08051A0E0BFFF757FD13E0FFF7F5FE4C
:1024100010E0FFF729FF0DE0FFF736FD0AE0FFF7B8
:10242000DBFD07E0FFF776FF04E0FFF716FC01E0B5
:10243000FFF743FC204610BD70B504460D4600264C
:102440002979687800284BD0012825D0032851D15C
:1024500094F81201022806D003280BD02946204602
:10246000FFF72BFC46E009B3802943D02046FEF756
:10247000B9FA3FE0688828B921B1802902D0204606
:10248000FEF7B0FAD4F8E405294682682046904762
:102490002046FFF752FC2DE094F81201022806D0E6
:1024A00003280BD029462046FFF707FC22E009B39A
:1024B00080291FD02046FEF795FA1BE06888C8B92E
:1024C00051B1802908D02046FEF72EFAD4F8E40551
:1024D00029468268204690472046FFF72EFC09E0F7
:1024E00094F81201022807D003280DD0294620466F
:1024F000FFF7E3FB304670BD0029FBD08029F9D0FF
:102500002046FEF76FFAF5E7124A08064FF000057D
:102510004FF001030CD501F07F0000EB800004EBCD
:10252000C00090F81E0108B153600BE0556009E04F
:1025300001EB810004EBC00090F8760308B1536012
:1025400000E0556003490222091D2046FFF7E5FB24
:10255000D0E70000E800002070B504460D460026D4
:1025600094F81201032805D029462046FFF7A5FB61
:10257000304670BD287901280CD8D4F8E4052946E6
:10258000826820469047E8880028F1D12046FFF76E
:10259000D4FBEDE729462046FFF78FFBE8E710B5AF
:1025A00000F589700178417004210170D0F8D604DB
:1025B000C0688047002010BD10B5002806D00A462C
:1025C000054906A0FFF720FD034810BD0A46024951
:1025D00002A0FFF719FDF7E7E82801205643502035
:1025E000436F6E666967000002490120087002A00F
:1025F00000F0A6BEFC0100204D534320496E7465D7
:10260000726661636520737461727465642E0D0A6D
:102610000000000002490120087002A000F090BEF6
:10262000FC010020555342204465766963652043D0
:102630006F6E6E65637465642E0D0A00122008804B
:1026400000487047B001002002490020087002A035
:1026500000F076BEFC0100205553422044657669A7
:10266000636520446973636F6E6E65637465642E81
:102670000D0A0000002804D0012805D004A000F0B5
:102680005FBE0CA000F05CBE13A000F059BE0000BD
:1026900055534220446576696365204C69627261D6
:1026A00072792076312E312E3020205B3F3F5D0D38
:1026B0000A00000055534220446576696365204C4A
:1026C0006962726172792076312E312E3020205B62
:1026D00048535D0D0A000000555342204465766959
:1026E0006365204C6962726172792076312E312ED9
:1026F0003020205B46535D0D0A00000001A000F071
:102700001FBE000044657669636520526573756D70
:1027100065640D0A0000000002490020087002A054
:1027200000F00EBEFC010020446576696365204917
:102730006E2073757370656E64206D6F64652E0D09
:102740000A0000007047000010B5002806D00A46B5
:10275000054906A0FFF758FC034810BD0A46024988
:1027600002A0FFF751FCF7E7E8280120564350206C
:10277000496E74657266616365000000042008801C
:1027800000487047AC01002010B50A46024903A07A
:10279000FFF73AFC004810BDE828012053544D696A
:1027A00063726F656C656374726F6E69637300004A
:1027B00010B5002806D00A46054906A0FFF724FCFC
:1027C000034810BD0A46024902A0FFF71DFCF7E7C7
:1027D000E8280120414C49454E54454B2053544D67
:1027E000333246342F4637205669727475616C2037
:1027F000434F4D0010B51A200880FEF723FC014816
:1028000010BD0000C201002043200880004870472E
:102810002001002008B543208DF8000000208DF82D
:10282000010003208DF8020001208DF803006846A6
:10283000FEF7E6FC08BD00007CB501210846FEF766
:1028400023FD01218020FEF72DFD4FF4C0500090A4
:1028500002208DF8040000248DF8064003208DF836
:1028600005008DF807400F4E69463046FEF79BFB8A
:102870004FF40041009101258DF804508DF8074078
:1028800069463046FEF78FFB07490D600A220B218F
:102890003046FEF7C6FB0A220C213046FEF7C1FB8C
:1028A0007CBD000000000240BC02404201F0F0B9D3
:1028B00001F00ABA3EB504460025002002900190BE
:1028C0000090217AE068012919D0C16841F04001E7
:1028D0000291C160204600F0E3F84FF434100190FB
:1028E000607A10B14FF474100190E1680198886328
:1028F0001420FFF7DBFFE078012822D02AE0816B6B
:1029000021F480310191627A12B141F48011019178
:1029100001998163E068C16821F0400121F48001E0
:1029200021F4003121F400210291C160204600F021
:10293000B7F8E0780128DED12A200090E1688860AD
:10294000D9E7E068816821F01E010A3141F02001D9
:102950000091816028463EBD2DE9F04188B00446D3
:10296000002700250795059504950395D4F80C01DB
:1029700005602069016821F4C05106910160E07A88
:10298000402601282BD10321204600F056FBE068A9
:1029900080214162ADF81660ADF81410E268059828
:1029A000906200EB1040ADF81000ADF81210E16835
:1029B0000498C1F8040100EB1040ADF81000ADF828
:1029C0001250E1680498C1F8080100EB1040ADF81E
:1029D0001000ADF81250E1680498C1F80C01102104
:1029E000204600F0EDFA204600F0CCFA206905619F
:1029F0002069456121694FF0FF3088612069C56118
:102A000000204FF0904C4FF0FF0812E004EB8001E3
:102A10008A6913680793002B02DACDF81CC000E026
:102A20000795079B13608A6915618969C1F8088059
:102A3000401C61788142E9D8002012E004EB80015B
:102A40004A6D13680193002B02DACDF804C000E050
:102A50000195019B13604A6D1561496DC1F80880AD
:102A6000401C61788142E9D84FF48070039020695E
:102A7000016941F480710161E078012809D10320E6
:102A800066F38A0040F4803066F359400290216971
:102A90000863204600F044FA08B03846BDE8F081EB
:102AA000F8B505460027002400200090124E0320B0
:102AB000FFF7FEFEE86800690090641CB44201D98B
:102AC0000020F8BD00980028F1DA0021009840F0BD
:102AD000010000900098EA681061E86802690092BD
:102AE000491CB14202D8009AD207F7D10320FFF760
:102AF000DFFE3846F8BD0000400D03000022C0682C
:102B0000816821F001018160104670471EB50024E4
:102B10000021009101698968029183691A68019214
:102B2000C1F34101002905D0012903D0022905D0B4
:102B3000032907D1D10AC902019103E0D10AC902D0
:102B4000C91C0191019919600069416841F48071C3
:102B5000416020461EBD7EB50026002202920092F2
:102B60004B784A69012B1CD00B7800EB83035D6D19
:102B70002C6802942D690095002A53D08A684A6116
:102B8000009D62F306050095009A22F4C01202F53A
:102B9000002200925B6D009A1A61C278012A4DD022
:102BA00052E083691D6802951C69009442B18C68EB
:102BB000A24210D94C61009A64F3060200920EE022
:102BC000009A22F07F020092009A22F4C01202F5CD
:102BD0000022009209E0009C62F306040094009A2F
:102BE00022F4C01202F500220092009A1A61C27803
:102BF000012A05D10C780A6900EB8404A46962619A
:102C000045F0806242F0004202921A60C2782ABB0C
:102C10004A691AB30A78012191400069426B0A435C
:102C200042631BE00D7A009A65F306020092009A57
:102C300022F4C01202F500220092ABE70B780A6979
:102C400000EB83035B6D5A6144F0806242F0004206
:102C50000292097800EB8100406D026030467EBD33
:102C60000EB54FF0404101910A49019109491831CF
:102C70000191426D01991161C178012909D1426D1B
:102C800000F2CC515161416D08684FF080200090F6
:102C900008600EBD000008C07CB50025002201922E
:102CA00000920C784E780123A34000EB8402012EA1
:102CB0001CD0526DADF80230136801931C040ED481
:102CC0000C8964F30A03CC7864F39343897961F344
:102CD000995343F0805141F4004101911160006922
:102CE000C169009A1143C16128467CBD9269ADF863
:102CF0000030E1E718B503460020002200924C782E
:102D00000A78012C03EB82020AD0526D136823F477
:102D100000130093C978032904D0022902D004E0EB
:102D20009269F3E743F0805100910099116018BD5A
:102D30003CB50024019400940B784D7801229A4010
:102D400000EB8301012D0AD0496DADF802200C6023
:102D50000069C169009A9143C16120463CBD8969FF
:102D6000ADF80020F3E708B50246002000230093E9
:102D70004B780978012B02EB810106D0496D0A6876
:102D800042F4001200920A6008BD8A69116800913D
:102D9000002902DA41F080410091009941F40011CC
:102DA0000091116008BDFEB500250022029201923B
:102DB0004C780B784A694FF0010C00EB8303012C2F
:102DC00019D05B6D1E6802961C690194002A72D0AE
:102DD0008F683A44521EB2FBF7F262F3DC44C4F34C
:102DE000C9427A4362F312040194019A1A61C278CB
:102DF000012A67D06CE09B691E6802961C690194E9
:102E00006AB162F312048F683A44521EB2FBF7F2C1
:102E100062F3DC440194CA78012A06D00AE0E20C8D
:102E2000D2046CF3DC42019204E024F0C04202F1CF
:102E300000520192019A1A61C278012A10D0CA7810
:102E4000012A09D04A693AB10A780CFA02FC0269EF
:102E5000536B43EA0C035363CA78012A07D00FE08F
:102E60000B780A6900EB83039B695A61F4E70269F6
:102E700092680092120AD20711D046F08052029254
:102E8000029A42F0806242F0004202920B7800EB1C
:102E900083039B691A60CA78012A04D02FE046F0A8
:102EA00000520292ECE78A8A93B20A78C96800F06D
:102EB00078F924E0FFE78A6862F312046CF3DC44DB
:102EC000019492E70B780A6900EB83035B6D5A610A
:102ED000CA78012A08D14A791AB146F00052029202
:102EE00002E046F080520292029A42F0806242F082
:102EF00000420292097800EB8100406D0260284692
:102F0000FEBD0000C2684FF0FF315160C2686FF033
:102F1000804151610149C0688161704700080080AB
:102F200038B50446002500200090E1688861E1681A
:102F30006FF0804048612046FFF7E4FFE07808B971
:102F400010200090009840F4006040F4805040F45D
:102F5000005040F4802040F4002040F0080040F48D
:102F6000801040F40010E1688A69824302438A615C
:102F7000284638BD0022C068816841F001018160A7
:102F80001046704738B50025002100220092009AB3
:102F900042F010020092009AC3681A61074BC2689F
:102FA00014690094491C994202D8009CE006F7D4A9
:102FB0000320FFF77DFC284638BD0000400D0300CC
:102FC00038B50025002200230093009B43F0200326
:102FD0000093009B61F38A1300930099C368196101
:102FE000074BC1680C690094521C9A4202D8009C9D
:102FF000A006F7D40320FFF75BFC284638BD00008D
:10300000400D030008B50146002009698968009158
:10301000C1F34101002907D0012903D0022905D0BD
:10302000032900D1022008BD032008BD012008BDEE
:10303000C068406900F0010070470069026861F3F0
:1030400001020260704700B5FFF7F2FF012801D0CE
:10305000012000BD002000BDC068416980690840B2
:10306000704700698169C069084080B27047006993
:103070008169C0690840000C704700EB8101496D0F
:103080008968006940690840704710B504460846E1
:103090000021D21C9308D4F8D02003E0146840F833
:1030A000044B491C9942F9D310BD000070B50022B1
:1030B00000250024C47001238370402686800129E6
:1030C00001D061B114E04FF0A042C3720821017039
:1030D000042141709115C1800221017208E0224A49
:1030E000C4720C210170062141704FF4A061C180AF
:1030F000C26002F50061016100210AE002EB4113A8
:1031000000EB810403F51066A66103F53063636587
:10311000491C43788B42F1D802F58061416140310E
:10312000C0F8CC10002108E002EB411300EB810451
:1031300003F5A063C4F89030491C03788B42F3D8A0
:10314000002108E002EB013300EB810403F580531A
:10315000C4F8D030491C03788B42F3D802F5606282
:10316000C0F80C21284670BD0000044038B500248A
:10317000C368D86820F0005020F0804200920129F6
:1031800001D021B106E042F00050009002E042F090
:10319000804000900098D8603220FFF787FB2046DF
:1031A00038BD30B505460020EC78002C0CD1DB1C76
:1031B0009B0805EB8202D2F8D02003E051F8045BB3
:1031C0001560641C9C42F9D330BDFEE710B504289D
:1031D00038DD1D4C202802D0212833D121E0087889
:1031E0004A78CB7840EA02208A78120442EA0362E5
:1031F00010432060087920714A7962718979A17140
:10320000014612A000F09CF8617916A000F098F831
:10321000A1791BA000F094F820A0216800F090F89C
:1032200010E0207808702088000A48702068000CA0
:1032300088702068000EC870207908716079487124
:10324000A0798871002010BDE00100206C696E65D6
:10325000636F64696E672E666F726D61743A256480
:103260000D0A00006C696E65636F64696E672E708D
:103270006172697479747970653A25640D0A000089
:103280006C696E65636F64696E672E6461746174E6
:103290007970653A25640D0A000000006C696E655E
:1032A000636F64696E672E626974726174653A2532
:1032B000640D0A00F0B500230026144D1DE0C45C27
:1032C0002A88170417D4570407D50A2C01D02E805A
:1032D00011E042F400422A800DE00D2C11D0DFF8FD
:1032E00030C0C2F30D070CF80740521C92B22A807E
:1032F000C72A00D92E805B1CDBB28B42DFD30020B3
:10330000F0BD42F480422A80F5E70000DC01002095
:10331000AF2A0120074A064B11685854491C116016
:10332000B1F5006F01D1002010600020704700004F
:10333000E820012000010020002070470020704795
:103340000FB4054B10B503A9044A029800F0DCF84D
:1033500010BC5DF814FB0000013D00081C020020B9
:1033600037B514460846064B6A46214600F0CCF8AD
:1033700004466946002000F05EFC20463EBD000089
:10338000373C000802E008C8121F08C1002AFAD121
:1033900070477047002001E001C1121F002AFBD1D5
:1033A000704700002DE9FF5FDDE90220010DDDF827
:1033B00038B0024318D044F61050A1F2FF31414317
:1033C0000D140F98012820D0A5EB0B00401C5FEADC
:1033D000000A4FF00004474EDFF81C91A04650460B
:1033E00016D5CAF1000728E00F98012443A201284E
:1033F00008D0002100980F9BC0E90021C0E90243DA
:10340000BDE8FF9F6FEA0B01F4E7CBF10000DEE7B8
:10341000074612E0F80707D02246334640464946A1
:10342000FDF753F880468946224633461046194632
:10343000FDF74BF804460E467F10002FEAD1DDE978
:103440000201BAF1000F42464B4602DAFDF73DF8A1
:1034500001E0FDF7ACF804460E460022284BFDF7CC
:103460002DF903D84FF0FF30014607E00022254B2D
:1034700020463146FCF782FFFDF708F9102409E0E9
:10348000002C0ADB0A220023FCF747FF019B3032A5
:103490001A55641E50EA0102F2D1641C019AC4F16B
:1034A000110314440F9A012A03D0012208430DD1BD
:1034B0000AE0084304D000204FF0110B0F9080E782
:1034C000A3EB0B056D1E0DE05B4504DD4FF0000224
:1034D00005F1010504E003DA4FF00002A5F1010552
:1034E000002AECD000980F99C0E90231C0E90045EC
:1034F00086E70000000024400000F03F300000009C
:103500000000F0430000E03F2DE9FF4F95B09B46DF
:103510008946064600250FE2252877D10024274654
:10352000F84A0121059400E0044316F8013F203BCE
:1035300001FA03F01042F7D130782A2811D06FF049
:103540002F033078A0F13002092A16D8059A44F0EA
:10355000020402EB820203EB42021044761C059047
:10356000EFE759F8042B0592002A03DA504244F49D
:103570000054059044F00204761C30782E2816D1B1
:1035800016F8010F44F004042A280DD06FF02F0222
:103590003078A0F13003092B09D807EB870302EB41
:1035A0004303C718761CF3E759F8047B761C307880
:1035B0006C280FD006DC4C2817D068280DD06A285C
:1035C00014D104E0742810D07A280FD10DE044F40F
:1035D00000140AE044F4801401E044F440147278CA
:1035E000824202D104F58014761C761C307866285D
:1035F0000BD013DC582877D009DC002875D045287B
:10360000F6D04628F4D047281AD19DE118E0632867
:1036100035D0642879D0652812D195E1702873D00F
:1036200008DC6728F1D069286FD06E280DD06F288C
:1036300006D1B5E073282CD0752875D0782874D0C1
:103640005A46179990476D1C75E1C4F30250022841
:1036500009D003280DD0D9F8001004280DD00D6032
:1036600009F1040967E1D9F80010EA17C1E900522D
:10367000F6E7D9F800100D80F2E70D70F0E719F8C1
:10368000041B8DF8001000208DF80100EA4601208F
:1036900003E059F804AB4FF0FF3061074FF0000131
:1036A00002D40DE008F101018846B9420FDA8045E5
:1036B000F8DB1AF808100029F4D108E008F101013C
:1036C00088468142FADB1AF808100029F6D10598DD
:1036D0005B46A0EB080721463846179A00F094FA9B
:1036E000284400EB080507E04DE029E10DE01AF859
:1036F000010B5A4617999047B8F10108F7D25B467B
:1037000021463846179A13E142E00A220092C4F398
:1037100002524FF0000A022A08D059F804CB032ABB
:103720004FEAEC710AD00DE029E02AE009F1070127
:1037300021F00702F2E802C1914609E00FFA8CFC81
:103740004FEAEC71042A03D14FFA8CFC4FEAEC717A
:10375000002907DA0A460021DCF1000C61EB0201C6
:103760002D2202E0220504D52B228DF8042001220F
:1037700003E0E20701D02022F7E7904659E00A2152
:1037800002E010220DE010214FF0000A00910BE042
:1037900010224FF0000A44F004040827009203E0CE
:1037A00008224FF0000A0092C4F30252022A05D008
:1037B00059F804CB0021032A08D009E009F10701D8
:1037C00021F00702F2E802C1914605E01FFA8CFCE5
:1037D000042A01D10CF0FF0C4FF00008220728D575
:1037E000702806D0009B83F0100353EA0A0305D02B
:1037F0000EE040228DF80420012208E05CEA01027C
:1038000006D030228DF804208DF805000222904663
:10381000009B83F0080353EA0A030AD15CEA010221
:1038200001D1620705D530228DF804204FF0010840
:103830007F1E582804D034A003900EA802900DE0FB
:1038400036A0F9E753466046009AFCF766FD8446C9
:103850000398825C0298401E029002705CEA0100AC
:10386000F0D1029806A9081A00F1200A600702D5D3
:1038700024F4803400E00127574502DDA7EB0A005D
:1038800000E0002000EB0A01009005984144401A36
:103890000590E00306D45B462146179A059800F090
:1038A000B3F90544002706E001A85A46C05D179900
:1038B00090476D1C7F1C4745F6DBE0030CD55B464B
:1038C0002146179A059800F09FF9054404E030203E
:1038D0005A46179990476D1C0099481E0090002980
:1038E000F5DC08E0029802995A460078491C0291DA
:1038F000179990476D1CBAF10001AAF1010AF1DC99
:1039000065E10000092801003031323334353637A3
:10391000383961626364656600000000303132331B
:1039200034353637383941424344454600000000BB
:1039300000F058F90544761C307800287FF4ECAD8F
:1039400019B02846BDE8F08F620700D4062709F1B8
:10395000070222F0070CFCE80223E14603F00048CE
:103960005FEA080C02D00FF2702C0DE05FEA045CF5
:1039700002D50FF2682C07E05FEAC47C02D00FF298
:10398000602C01E0AFF2700C4FF0FF3823F00043E1
:10399000CDF850C065280CD006DC452809D0462853
:1039A0001DD047283DD13DE0662818D067287ED13C
:1039B00038E00021112F01DB112000E0781CCDE957
:1039C000000106A90EA8FFF7EDFCDDE90F010E9A34
:1039D00003910021009207F1010A04914DE04FF09C
:1039E00000400097CDE9011006A90EA8FFF7DAFC08
:1039F000DDE90F0203920E9B11990022DDF80CA065
:103A00000093049211B9791C00EB010AB7EB0A008C
:103A100004D4C0F1FF3007F1010A0490AAEB0700BB
:103A2000019044E0012F00DA01270021112F01DD70
:103A3000112000E03846CDE9000106A90EA8FFF7E5
:103A4000B1FCDDE90F010E9A03910021049100926F
:103A5000BA4621070CD40399514500DA8A46BAF1D7
:103A6000010F05DD009AAAF10101515C302908D04F
:103A7000B84202DA10F1040F06DA0121CDE9011093
:103A800015E0AAF10101E9E7002805DC04990144E9
:103A90000491AAEB000102E0411C514500DD8A4679
:103AA0000499401A401C01904FF0004002902007FA
:103AB00004D40198504501DBCDF8048000208DF836
:103AC0004F0002980DF14F07B0F1004F25D02B2089
:103AD0000E9002984FF0020800280CDA4042029043
:103AE0002D200E9007E00A210298FCF700FC3031EF
:103AF000029007F8011DB8F10001A8F10108F2DCFD
:103B000002980028EFD1791E0E980870307800F0E6
:103B1000200040F0450007F8020D12A8C01B00F17C
:103B200007081498007800B1012000EB0A01019801
:103B300001EBE07105984144401A401E0590E003F6
:103B400006D45B462146179A059800F05DF80544B7
:103B50001498007818B15A46179990476D1CE003E5
:103B600024D55B462146179A059800F04DF8054488
:103B70001CE00498002807DBDDE90301884203DD2F
:103B80000098405C179901E0179930205A469047F9
:103B9000049805F10105401C04900198401E019015
:103BA00004D12E205A46179990476D1CBAF1000196
:103BB000AAF1010ADDDC05E017F8010B5A46179956
:103BC00090476D1CB8F10001A8F10108F4DC5B46D8
:103BD0002146179A0598ABE62D0000002B00000047
:103BE000200000002DE9F041044600251E4617463E
:103BF000880404D405E039462020B0476D1C641EBB
:103C0000F9D52846BDE8F0812DE9F04104460025AC
:103C10001E469046C80301D5302700E020278804BF
:103C200004D505E041463846B0476D1C641EF9D501
:103C30002846BDE8F0810A68531C0B60107070477D
:103C400010B54FF4E131012000F0A4FD012001F096
:103C5000EFFA0149086010BDB000002010B504461D
:103C60000420FDF731FD094804704FF47A714C438C
:103C7000012141804FF0E021086940F00200086115
:103C80004C61086940F00100086110BD140000207B
:103C900070B5044601F080FD01280CD0094D6888FC
:103CA000844203D3B4FBF0F001F0EAF86888B4FB77
:103CB000F0F100FB11444FF47A706043BDE87040AE
:103CC00000F002B81400002070B500214FF0E0258C
:103CD0006C690A4A12785043AB69AA699A42FCD0CF
:103CE00003D2A3EB0203194403E0A4EB020633441E
:103CF000194413468142F0D370BD00001400002027
:103D0000024988800A881206FCD5704700100140DD
:103D10007CB54FF44070FDF7A7FAA820FFF79EFF8F
:103D2000FFF78EFFFDF7FEF9FDF73CFC26A328A266
:103D30002AA12D48FFF704FB00200221CDE9001045
:103D400003464FF4FA6229A12B4801F0F5FC054621
:103D500000232A4C5E1E32461946206801F096FA6E
:103D60005C2127A0FCF7B3FA411C5223294A2AA060
:103D7000FFF7E6FA29462CA0FFF7E2FA00231A46DD
:103D80001946206801F08CFB012D01D030467CBD26
:103D900001F032F9002332461946206801F076FA24
:103DA0005C2117A0FCF793FA411C5A23194A1AA068
:103DB000FFF7C6FA22A0FFF7C3FA00231A461946F6
:103DC000206801F06DFBE5E7312E312E390000004F
:103DD00032313A35353A3134000000004D617220FD
:103DE00032372032303231002C5B00086170705F56
:103DF0007461736B0000000085080008B0000020AB
:103E00002E2E5C555345525C7372635C6D61696E16
:103E10002E630000245B00080D0A25732025732003
:103E200025643A09000000006372656174652061D1
:103E300070707461736B207265743D25640D0A00A7
:103E4000756E6578706563746564207768696C6504
:103E5000283129002DE9F04104460F46174EF56838
:103E60003068001D00F0F4FE38B9306890F82C106E
:103E700001208840316981433161601C07D137B12D
:103E80003168BDE8F041091D0D4800F019BF2C4410
:103E900030684460AC4206D23168B06B091DBDE8A1
:103EA000F04100F0F5BE3168706B091D00F0F0FEC6
:103EB000B06A844200D2B462BDE8F0812C000020D8
:103EC000E003002070B5044600F006FF1D4DA86811
:103ED000401CA860286810B1686938B10CE02C60FB
:103EE000A868012808D100F091F905E02868E16A86
:103EF000C06A884200D82C60686A401C68622064EE
:103F0000E06A01212A698140114329610E4900EBD1
:103F1000800001EB8000211D00F0D2FE00F0FCFECD
:103F2000686900280CD02868E16AC06A884207D214
:103F300006494FF080500860BFF34F8FBFF36F8F7B
:103F400070BD00002C0000202C03002004ED00E0D8
:103F500010B500F0C1FE0E4C2068A0B90D4800F06D
:103F600089FE0C48143000F085FE0A48E0601430E9
:103F7000206100220C210A2001F066F9206010B1B6
:103F800005A100F047FFBDE8104000F0C5BE0000ED
:103F900068000020F4030020546D725100000000FE
:103FA00070B5124E124D1CE001F05EF8306820B181
:103FB000002401F0F5FCA4B901E00124F9E700F0C8
:103FC0008BFEF068C468201D00F042FEA868401E09
:103FD000A8606868401E686000F09EFE204600F001
:103FE00054F868680028DFD170BD0000CC030020C1
:103FF0002C00002030B40B46026C002A0CD0C168A3
:104000001144C1604468A14201D30168C160C16824
:1040100030BC1846FCF730B930BC70472DE9F04190
:10402000044617460026A56B226C002A10D0C7B1A3
:10403000E068FCF721F9E168206C091AE160226868
:10404000914202D26168081AE060022F16D017E090
:104050002068A8B9606801F019FC0646002060607D
:104060000EE0A068FCF708F9216CA0680844A06085
:104070006168884204D32068A06001E005B16D1E2C
:104080006D1CA5633046BDE8F08110B50446206B79
:1040900000F058FE2046BDE8104000F053BE00007E
:1040A0000749CA681168002904D00021016019B1CC
:1040B000002070470121F9E7D068006870470000D0
:1040C000680000204FF448410F48420706D0C01D49
:1040D00020F007000C49411AC1F548410B4A106015
:1040E000002353600144083921F00701103A1160A0
:1040F0004B600B600B1A4360016040689060506039
:104100004FF00040D06070471C0400208C0000205D
:10411000074E4FF08054074DFFF742FF30680128EB
:10412000FAD92C60BFF34F8FBFF36F8FF4E7000015
:104130002C03002004ED00E0002808D0002141609D
:104140000160C16000231A46194601F0A9B9704701
:1041500070B51D46049C002909D02260E0632164EB
:104160000121204601F056F984F84C5070BD2460BE
:10417000F4E72DE9F0478146DDE908580A9C0E4630
:1041800017469A46B900A522206BFCF787F8206BEA
:104190007F1E00EB870020F00707780707D050202C
:1041A00080F31188BFF34F8FBFF36F8FFEE70020BE
:1041B0002218315C82F83410315C11B1401C0A289D
:1041C000F6D3002684F83D60052D00D30425E56272
:1041D000A564E664201D00F058FD04F1180000F00D
:1041E00054FD2461C5F10500A0616462266584F870
:1041F000546052464946384600F084FA2060B8F1CF
:10420000000F01D0C8F80040BDE8F08770B5002469
:10421000124D04EB840005EB800000F02BFD641CC4
:10422000052CF6D30D48643000F024FD0B4878309F
:1042300000F020FD09488C3000F01CFD0748A0303C
:1042400000F018FD0548B43000F014FD034904489F
:10425000643141631431816370BD00002C03002080
:104260002C00002030B5134900E011460A68824254
:10427000FBD34B685C18844203D140681844486003
:1042800008460D6844682318AB420DD1094B103B1A
:104290001B689A4206D05268224442600A6812683B
:1042A000026002E0036000E00260814200D008602A
:1042B00030BD00008C00002070B50024416000611A
:1042C0000C4D91420AD8D11A8269914201D301243E
:1042D0000EE0011D286900F0DBFC09E09A4203D2E0
:1042E000994201D3012403E0011DE86800F0D0FCED
:1042F000204670BD6800002010B5044600F0ECFCBC
:10430000A06B20B1002400F007FD204610BD012461
:10431000F9E710B5044600F0DFFCA06BE16B8842C2
:1043200001D1012400E0002400F0F6FC204610BD7D
:10433000F8B505460E461448C068C068C468201D1C
:1043400000F086FCE069012810D1A0692B464119D4
:1043500032462046FFF7B0FF40B100200346014639
:1043600000902A46204601F0A9FB28B1616A01B0FD
:104370002046BDE8F0400847502080F31188BFF385
:104380004F8FBFF36F8FFEE76800002030B585B018
:104390002B4D4BE00298002848DB049C606910B16B
:1043A000201D00F055FC01A800F094F80246029888
:1043B0000A283BD2DFE800F00505053A2637050557
:1043C0003A260398A169034601442046FFF774FF8B
:1043D00000B3616A20468847E069012826D10020A1
:1043E00000900398A169002342181946204601F065
:1043F00065FB78B9502080F31188BFF34F8FBFF36E
:104400006F8FFEE70398A06128B1811813462046FC
:10441000FFF752FF0AE0502080F31188BFF34F8F5F
:10442000BFF36F8FFEE7204600F08CFC00231A4696
:1044300002A9286800F02AFF0028ABD105B030BDE2
:1044400068000020F8B506460D4600F00DFE6846EF
:1044500000F040F80446009810B101F0A1FAF8BD50
:1044600045B9A64206D801F09BFA21463046FFF72F
:104470005FFFF8BD0C481DB10169096891B10025C5
:10448000311B2A46006800F0D7FC01F089FA0028A9
:10449000EFD106494FF080500860BFF34F8FBFF354
:1044A0006F8FF8BD0125EBE76800002004ED00E008
:1044B0000748416B0968002905D0416BC968C96884
:1044C0004968816270474FF0FF3181627047000098
:1044D0002C00002070B5054601F06CF90446074E2B
:1044E000B068844204D200F00BF80120286001E09B
:1044F00000202860B460204670BD000068000020E5
:10450000F8B5194E1FE0C0680568C468201D00F0AA
:104510009FFB616A20468847E069012813D1A069A2
:104520002844A84206D960602461211DF06800F08B
:10453000AFFB08E000200346014600902A462046D3
:1045400001F0BCFA40B1F06801680029DBD1F068E5
:104550003169F1603061F8BD502080F31188BFF3FC
:104560004F8FBFF36F8FFEE7680000200948406857
:10457000401C07D0502080F31188BFF34F8FBFF34A
:104580006F8FFEE7502080F31188BFF34F8FBFF38A
:104590006F8FFEE79400002008B56846FFF780FDA6
:1045A0000099FFF74FFFFFF7F1FEF6E72DE9F04125
:1045B000044600F091FB94F9455004F1240609E00B
:1045C000606A48B1304601F0ADF908B100F080FCF6
:1045D0006D1E6DB2002DF3DC4FF0FF3684F84560A0
:1045E00000F09AFB00F078FB94F9445004F11007B6
:1045F00009E0206948B1384601F094F908B100F0AB
:1046000067FC6D1E6DB2002DF3DC84F84460BDE8DC
:10461000F04100F081BB00002DE9F0410546002685
:1046200000F022FD304F386808B9FFF74BFDF868FD
:1046300005424AD18DB1083568070ED005F0070054
:10464000C0F108000544680707D0502080F31188A6
:10465000BFF34F8FBFF36F8FFEE7B5B37868854226
:1046600033D8214910310846046801E02146044648
:104670006068A84202D220680028F7D138688442D6
:1046800023D00E680836206808606068411B102936
:104690000ED96019420707D0502080F31188BFF36C
:1046A0004F8FBFF36F8FFEE741606560FFF7DAFD64
:1046B00061687868401A7860BA68904200D2B86041
:1046C000F868014361600020206001F069F970071B
:1046D00007D0502080F31188BFF34F8FBFF36F8F47
:1046E000FEE73046BDE8F0817C0000200449086800
:1046F000002803D00868C26C521CC2640868704766
:104700002C00002024384FF08073036221F0010157
:10471000C1610449816142606FF0020140F82019D3
:10472000704700006D4500080349034A0E3A31F80E
:10473000101022F8101070472ADA00202DE9F047F7
:1047400072B60023124C4FF4007A04EB402C9846CA
:1047500004F60E6604F5606913E036F81040CF5C8D
:10476000651CADB226F810500CF804705B1C554562
:1047700001D326F8108036F8104039F81050AC42BA
:1047800001D09342E9DB62B61846BDE8F08700002D
:104790001CCC00202DE9F04105460F464FF0FF34B8
:1047A000072D02DB2046BDE8F081344E56F8250087
:1047B00008B10020F7E740F22558012D06D0022D60
:1047C00018D0032D2AD0042D4FD13BE001210846FB
:1047D000FCF75AFD01211020FCF780FD3846FCF75C
:1047E000B9FF012241462648FDF7B2F9FDF708F866
:1047F00000243AE001210846FCF746FD0121480467
:10480000FCF75EFD3846FDF70BF8012241461D48D6
:10481000FDF79EF9FDF75CF8002426E00121022057
:10482000FCF732FD01218804FCF74AFD3846FDF70C
:104830005FF8012241461448FDF78AF9FDF7AEF80A
:10484000002412E001210846FCF71EFD0121C804E6
:10485000FCF736FD3846FDF7B1F8012241460B481A
:10486000FDF776F9FDF702F90024012046F825004E
:10487000E8B2FFF759FF204695E7000038DA00203C
:10488000001001400044004000480040004C00403F
:104890000FB4F8B507AA0B480699FEF761FD002092
:1048A00000900848FBF70CFD86B20024054D04E09B
:1048B000285DFEF72FFD641CA4B2B442F8D3F8BC07
:1048C0005DF814FBE729012008B5002500263448CF
:1048D0000090344B344A01213448FDF7B3FBDFF834
:1048E000D0B0DFF8D0A0DFF8D0809BF8000086427F
:1048F00009D09BF80060012E13D0B8F8180040F0E2
:104900001000A8F81800BAF8000001041FD5C0F381
:104910000D07394629A0FFF7BBFF0024DFF8B4904C
:104920000CE0B8F81A0040F01000A8F81A00EAE706
:1049300019F80400FEF7EEFC641CA4B2BC42F7D3E5
:1049400025A0FFF7A5FF0020AAF80000CDE76D1C09
:10495000ADB241F28830B5FBF0F100FB115028B93F
:104960001FA0FFF795FF29A0FFF792FFC820B5FB16
:10497000F0F100FB115010B92AA0FFF789FF1E20AB
:10498000B5FBF0F100FB115028B9D8F8140080F005
:104990002000C8F814000A20FFF77AF9A5E7000004
:1049A00000020020640100209001002054EA002051
:1049B000FC010020DC010020000002400D0AC4FAC6
:1049C000B7A2CBCDB5C4CFFBCFA2CEAA3A25640DFA
:1049D0000A0D0A00AF2A01200D0A0D0A000000008E
:1049E0000D0AB0A2B2A8C2DE53544D333246342F62
:1049F0004637BFAAB7A2B0E5555342D0E9C4E2B4E6
:104A0000AEBFDACAB5D1E90D0A000000D5FDB5E3A5
:104A1000D4ADD7D340414C49454E54454B0D0A0DBA
:104A20000A000000C7EBCAE4C8EBCAFDBEDD2CD209
:104A3000D4BBD8B3B5BCFCBDE1CAF80D0A00000078
:104A400070B5104D2978012919D12969002651B175
:104A50002A464029D26808D994B240234032EA60FD
:104A60004039296106E02E7009E094B28BB21144FE
:104A7000E9602E6104490A198121FBF7CFFF00206C
:104A800070BD0000F8000020E820012010B50446A9
:104A900001EB810004EBC000B0F88C0381B2064842
:104AA0000269064890474023044A01212046FBF74B
:104AB00075FF002010BD0000E8010020A8200120A3
:104AC00010B5044681212046FBF718FF012120463E
:104AD000FBF714FF82212046FBF710FF02484068D5
:104AE0008047002010BD0000E801002010B5074CF1
:104AF0006069FF2807D00649A2698B6804F120018C
:104B00009847FF206061002010BD0000F8000020E1
:104B1000E801002010B504460223402281212046EE
:104B2000FBF71EFF0223402201212046FBF718FF5E
:104B30000323082282212046FBF712FF07490220A7
:104B40000871002048710648016888474023054ADB
:104B500001212046FBF722FF002010BDB0010020FC
:104B6000E8010020A820012010B5064AD169491C9F
:104B7000D161062903D10021D161FCF77FFA002021
:104B800010BD0000F800002070B505460C463A2222
:104B90002D4B2078A3F1310610F0600127D0202999
:104BA00005D021462846FDF788F8022070BD274928
:104BB000E2888B68AAB100060AD5234960781139CA
:104BC00098472149E28811392846FDF7A6F80CE0FC
:104BD00060787061B2611C4928461139FDF77CF894
:104BE00003E00022607811469847002070BD61788C
:104BF000062904D00A2912D00B291FD116E060889B
:104C00002121B1EB102F05D10F4B0933E2883A2A4D
:104C100000D93A2219462846FDF77FF80EE00A49E6
:104C200001222D392846FDF778F807E0608810F05A
:104C3000FF0F05D021462846FDF73FF8002070BD44
:104C4000C0B27060FAE7000029010020E8010020EE
:104C50000169D0E901329A60D0E901235A604A68BB
:104C6000824201D182684A60002202610868401EC7
:104C70000860704700F1080141604FF0FF32826028
:104C8000C16001610021016070470021016170472E
:104C900030B50C68621C02D000F1080202E0026923
:104CA00004E01A4653681D68A542FAD953684B6060
:104CB00099608A60516008610168491C016030BDDB
:104CC00042684A6093688B6093685960916008619C
:104CD0000168491C01607047502080F31188BFF3C0
:104CE0004F8FBFF36F8F0A494868401C4860012806
:104CF0000CD10848006810F0FF0F07D0502080F357
:104D00001188BFF34F8FBFF36F8FFEE7704700002E
:104D10009400002004ED00E009494868002806D00E
:104D2000401E4860002801D180F311887047502050
:104D300080F31188BFF34F8FBFF36F8FFEE7000042
:104D40009400002070B5002827D008380446134D81
:104D50006068E968084207D1502080F31188BFF3EA
:104D60004F8FBFF36F8FFEE722683AB1502080F378
:104D70001188BFF34F8FBFF36F8FFEE788436060EA
:104D800000F072F960686968084468602046FFF7BF
:104D900069FABDE8704000F003BE70BD7C000020E1
:104DA00006484FF47A710068B0FBF1F14FF0E02053
:104DB000491E416107210161704700001800002071
:104DC00010B5FBF743FA114910280ED300F1E0208B
:104DD00090F8F0030A78904207D2502080F31188AF
:104DE000BFF34F8FBFF36F8FFEE7094800688968F4
:104DF00000F4E060884207D9502080F31188BFF3A7
:104E00004F8FBFF36F8FFEE710BD000094000020AE
:104E10000CED00E010B50022064B53F832401CB1F7
:104E2000521C082AF9D310BD43F8321003EBC2011B
:104E3000486010BDEC02002070B504460D461646D1
:104E4000FFF74AFF94F944304FF000005B1C01D19A
:104E500084F8440094F94510491C01D184F84500B8
:104E6000FFF75AFFA06B28B93246294604F1240007
:104E700000F04EF82046BDE87040FFF797BB0000F9
:104E800010B502460020002A12D00F48006B38B13E
:104E9000502080F31188BFF34F8FBFF36F8FFEE771
:104EA00000F0E2F800211046FEF7D4FF00F078FD94
:104EB000002807D105494FF080500860BFF34F8F9D
:104EC000BFF36F8F10BD00002C00002004ED00E048
:104ED00001490120C86170472C00002010B50C4624
:104EE00000280AD0094909681831FFF7D1FE204689
:104EF000BDE810400121FEF7ADBF502080F31188BE
:104F0000BFF34F8FBFF36F8FFEE700002C00002030
:104F100070B50D46144600280DD00B4909681831AC
:104F2000FFF7CEFE0CB14FF0FF3521462846BDE815
:104F30007040FEF78FBF502080F31188BFF34F8F72
:104F4000BFF36F8FFEE700002C00002070B5044611
:104F5000002839D01D4DE06A2968C96A884233D2D9
:104F6000A069002804DB2868C06AC0F10500A061C0
:104F7000E06A174E00EB8000616906EB8000814219
:104F80001FD1201DFFF764FE012150B9E06A00EB3C
:104F9000800256F8222022B92A6901FA00F08243E1
:104FA0002A612868C06AE0622A6981401143296148
:104FB00000EB800006EB8000211DBDE87040FFF78C
:104FC0007FBE2868C06AE06270BD00002C0000202F
:104FD0002C030020002805D006490A6A0260C9682F
:104FE00041607047502080F31188BFF34F8FBFF3AB
:104FF0006F8FFEE72C0000201CB517480024CDE978
:1050000000402346822215A1164800F095FB012896
:1050100001D100F02BFD012809D0401C1AD15020ED
:1050200080F31188BFF34F8FBFF36F8FFEE75020DF
:1050300080F31188BFF34F8FBFF36F8F06484FF097
:10504000FF312C38816201214161C460BDE81C4000
:1050500000F068B81CBD00005800002049444C45D1
:1050600000000000114100080248016B491C016367
:10507000704700002C000020154A106B002802D059
:105080000120D06170470020D0611069B0FA80F033
:10509000C0F11F000F4900EB800051F8203073B1C0
:1050A00001EB800041684968416000F108039942C2
:1050B00001D1496841604068C06810607047502065
:1050C00080F31188BFF34F8FBFF36F8FFEE70000AF
:1050D0002C0000202C03002010B51148018841F459
:1050E000804101809020FCF7DBF90020FCF7D8F923
:1050F0000020FCF7D5F90020FCF7D2F9FF20FCF7DF
:10510000CFF94FF6FF7101EA0024FF20FCF7C8F940
:1051100020430349891E0A8842F480420A8010BD58
:105120001A0402401CB532480168324A914207D144
:10513000502080F31188BFF34F8FBFF36F8FFEE7CE
:1051400000682C49491E884207D1502080F31188FD
:10515000BFF34F8FBFF36F8FFEE7274908780190A9
:10516000FF200870087800909DF800009DF800204E
:1051700000F0F000904207D0502080F31188BFF378
:105180004F8FBFF36F8FFEE79DF800001B4A00F0C2
:10519000500010700720906006E09068401E9060FC
:1051A0009DF80000400000909DF800000006F4D437
:1051B000107A000200F4E0609060019808700C48DA
:1051C0002030016841F470010160016841F07041D4
:1051D0000160FFF7E5FD00205060FAF7FFFF084887
:1051E000016841F040410160FAF7E8FF00201CBD72
:1051F00000ED00E071C20F4100E400E094000020E7
:1052000034EF00E010B5502080F31188BFF34F8FCA
:10521000BFF36F8F00F0D4FA18B104494FF08050FB
:105220000860002080F3118810BD000004ED00E04C
:1052300010B502460021012000F006F80446204681
:10524000FEF77AFF204610BDF8B505460E46174614
:10525000002D11D0C6B105FB06F05030FFF7DCF988
:1052600004463CB104F150023B46314628460094C6
:10527000FEF76EFF2046F8BD502080F31188BFF383
:105280004F8FBFF36F8FFEE70020E6E72DE9FF4F5A
:1052900083B004468A469B460026002C03D0BAF110
:1052A000000F08D011E0502080F31188BFF34F8F1A
:1052B000BFF36F8FFEE7206C38B1502080F3118868
:1052C000BFF34F8FBFF36F8FFEE700F065FA48B969
:1052D000059838B1502080F31188BFF34F8FBFF38A
:1052E0006F8FFEE74FF000094FF08057DFF8208105
:1052F000FFF7F2FCA56B95B3E66851462046FEF732
:1053000079FEBBF1000F13D0E660606A50B104F182
:10531000240000F007FB28B1C8F80070BFF34F8FDE
:10532000BFF36F8FFFF7F8FC012007B0BDE8F08FE7
:105330006D1EA563206810B9FFF7D8F96060206979
:105340000028EFD004F1100000F0ECFA0028E9D0BA
:10535000C8F80070BFF34F8FBFF36F8FE2E7FFE72E
:10536000059808B126B107E0FFF7D6FC0020DCE77E
:1053700001A8FFF72FFE0126FFF7CEFCFFF774FE12
:10538000FFF7AAFC94F94400401C01D184F8449032
:1053900094F94500401C01D184F84590FFF7BCFC0E
:1053A00005A901A800F08EF958B12046FFF7FEF8D4
:1053B00000F0F6FA2046FEF79FFF002898D0002064
:1053C000B3E72046FEF798FFE0B1206830B9FFF759
:1053D00083FC6068FFF7BAFDFFF79EFC04F1240030
:1053E0000599FFF77BFD2046FFF7E0F800F0D8FABB
:1053F00000287FF47DAFC8F80070BFF34F8FBFF374
:105400006F8F75E72046FFF7D1F800F0C9FA6FE714
:1054100004ED00E070B504460D46002C25D0FFF7E2
:105420005BFCD4E90F20216802FB001161600021C0
:10543000A1632168A160E06B2268216C401E00FB23
:105440000121E1604FF0FF3084F8440084F845000A
:1054500004F110008DB1FFF70DFC04F12400FFF7FB
:1054600009FCFFF759FC012070BD502080F3118822
:10547000BFF34F8FBFF36F8FFEE721690029F0D094
:1054800000F050FA0028ECD004494FF0805008603A
:10549000BFF34F8FBFF36F8FE3E7000004ED00E031
:1054A0002DE9FF4782B004468A461E460025002C9F
:1054B00003D0BAF1000F08D011E0502080F311881A
:1054C000BFF34F8FBFF36F8FFEE7206C38B15020D2
:1054D00080F31188BFF34F8FBFF36F8FFEE7022E6B
:1054E0000AD1E06B012807D0502080F31188BFF368
:1054F0004F8FBFF36F8FFEE700F04EF948B9049865
:1055000038B1502080F31188BFF34F8FBFF36F8FF6
:10551000FEE74FF000094FF08057DFF8E480FFF717
:10552000DBFBA06BE16B884205D3022E03D004980D
:1055300008B325B327E0324651462046FEF76EFDFC
:10554000616A59B104F1240000F0ECF968B1C8F8BF
:105550000070BFF34F8FBFF36F8F06E028B1C8F81C
:105560000070BFF34F8FBFF36F8FFFF7D5FB0120A4
:1055700006B0BDE8F087FFF7CFFB0020F8E76846EC
:10558000FFF728FD0125FFF7C7FBFFF76DFDFFF7CC
:10559000A3FB94F94400401C01D184F8449094F991
:1055A0004500401C01D184F84590FFF7B5FB04A9E4
:1055B000684600F087F830B12046FEF7F7FF00F0AC
:1055C000EFF90020D4E72046FEF7A3FE90B104F1E6
:1055D00010000499FFF782FC2046FEF7E7FF00F079
:1055E000DFF900289BD1C8F80070BFF34F8FBFF3DD
:1055F0006F8F94E72046FEF7D9FF00F0D1F98EE7D0
:1056000004ED00E02DE9F0470446894690461F4628
:10561000002C03D0B9F1000F08D011E0502080F326
:105620001188BFF34F8FBFF36F8FFEE7206C38B147
:10563000502080F31188BFF34F8FBFF36F8FFEE7C9
:10564000022F0AD1E06B012807D0502080F3118887
:10565000BFF34F8FBFF36F8FFEE7FFF7B1FB502013
:10566000EFF3118680F31188BFF34F8FBFF36F8F75
:10567000A06BE16B884206D3022F04D0002086F392
:105680001188BDE8F08794F945503A4649462046CE
:10569000FEF7C4FC681C04D06D1C84F84550012042
:1056A000EDE7606A0028FAD004F1240000F03AF92E
:1056B0000028F4D0B8F1000FF1D00120C8F80000A4
:1056C000EDE7000070B504460D46002C10D0BDB1CA
:1056D000FFF702FB174AD06829684B1C18D02368D3
:1056E000126A934216D06268824213D801241DE0E8
:1056F000502080F31188BFF34F8FBFF36F8FFEE709
:10570000502080F31188BFF34F8FBFF36F8FFEE7F8
:1057100000240BE06268801A884206D2081A2860CA
:105720002046FFF757FC002400E00124FFF7F4FABD
:10573000204670BD2C0000202DE9FF5F8146DDE989
:105740000E788A4616469B46B000FEF765FF054672
:1057500028000AD05820FEF75FFF04460CB12563ED
:1057600004E02846FFF7EEFA00E000248CB10020A8
:10577000CDE90240CDE900785B46324651464846C5
:10578000FEF7F7FC2046FEF79DFB012004B0BDE8C4
:10579000F09F4FF0FF30F9E705484169002903D039
:1057A000006B18B10020704701207047022070473D
:1057B0002C0000200148C068704700002C00002029
:1057C0002DE9F04100262F4F386B002808D0B8692A
:1057D000401CB861F86900B101263046BDE8F0818F
:1057E000FD686D1CFD609DB9786B006838B1502074
:1057F00080F31188BFF34F8FBFF36F8FFEE7786B95
:10580000B96B7963B863386A401C3862FEF750FEA2
:10581000B86ADFF8748085420DD3786B006838B1C0
:10582000786BC068C468606885420ED2B86202E0D6
:105830004FF0FF30B8623868C06A00EB800058F85B
:1058400020000128C6D90126C4E7201DFFF700FA71
:10585000A06A18B104F11800FFF7FAF9E06A012113
:105860003A6981401143396100EB800008EB800008
:10587000211DFFF725FAE06A3968C96A8842CCD34E
:105880000126CAE72C0000202C03002070B5044636
:105890000020002C41D0214D29688C4207D0502097
:1058A00080F31188BFF34F8FBFF36F8FFEE7E16C7A
:1058B00071B1491EE164A36CE26A9A422DD00029BD
:1058C0002BD1201DFFF7C4F9154A012140B112E088
:1058D000502080F31188BFF34F8FBFF36F8FFEE727
:1058E000E06A00EB800352F8233023B901FA00F399
:1058F000286998432861A06CE062C0F10500A061AE
:10590000E06A2B6981401943296100EB800002EBBA
:105910008000211DFFF7D4F9012070BD2C0000206C
:105920002C0300202DE9F041C068C468002C15D07C
:1059300004F118000746FFF78BF9174D2A6B012673
:10594000A2B139461548FFF7BBF9E06A2968C96A70
:1059500088421ED90120EE61BDE8F081502080F31D
:105960001188BFF34F8FBFF36F8FFEE7201DFFF746
:105970006FF9E06A2A6906FA00F1114329610749C3
:1059800000EB80008C3901EB8000211DFFF798F9B6
:10599000DBE70020E0E700002C000020B803002037
:1059A0002DE9F041002400272D4D286B002807D059
:1059B000FFF792F9286B401E2863286B40B14AE03C
:1059C000502080F31188BFF34F8FBFF36F8FFEE736
:1059D000A868E8B3DFF88C8001261EE0D8F80C0038
:1059E000C46804F11800FFF733F9201DFFF730F900
:1059F000E06A2A6906FA00F111432961194900EBAE
:105A000080008C3901EB8000211DFFF759F9E06A15
:105A10002968C96A884200D3EE61D8F800000028DE
:105A2000DCD10CB1FEF744FDAC6944B1FFF7C8FE10
:105A300000B1EE61641E002CF8D10020A861E86975
:105A400030B10127084938070860BFF34F8F00E0E5
:105A500001E0BFF36F8FFFF75FF93846BDE8F081D3
:105A60002C000020B803002004ED00E01CB5002449
:105A7000FEF76EFA0D48006860B10C480221001D67
:105A8000CDE9001000234FF4827209A10A48FFF704
:105A900053FE04460CB120461CBD502080F31188F3
:105AA000BFF34F8FBFF36F8FFEE700006800002049
:105AB000546D72205376630099450008FEB5064682
:105AC000089F9C460020002E13D0154D2C68002CFA
:105AD0000ED0009101920296062919DAFFF75CFEBA
